:020000040800F2
:10000000100800202D020008734200087F0B000832
:10001000714200084B0700082F4D00080000000047
:10002000000000000000000000000000C7480008B9
:100030004D07000800000000D1450008894900086C
:10004000470200084702000847020008470200086C
:10005000470200084702000851070008470200084D
:1000600089070008C1070008F907000847020008CF
:10007000470200084702000847020008470200083C
:10008000470200084702000847020008470200082C
:1000900047020008470200084702000875080008E8
:1000A000470200084702000847020008470200080C
:1000B00047020008DD490008114A0008470200080D
:1000C00047020008470200084702000847020008EC
:1000D00047020008854C0008470200084702000854
:1000E00047020008470200084702000847020008CC
:1000F00047020008470200084702000847020008BC
:1001000047020008470200084D4A0008470200085D
:100110004702000847020008D54A000847020008C5
:10012000470200084702000847020008470200088B
:1001300000F002F800F06BF80AA090E8000C82448E
:100140008344AAF10107DA4501D100F060F8AFF26B
:10015000090EBAE80F0013F0010F18BFFB1A43F0A5
:100160000103184734870000548700000A444FF009
:10017000000C10F8013B13F0070408BF10F8014B06
:100180001D1108BF10F8015B641E05D010F8016B4B
:10019000641E01F8016BF9D113F0080F1EBF10F8AF
:1001A000014BAD1C0C1B09D16D1E58BF01F801CBD2
:1001B000FAD505E014F8016B01F8016B6D1EF9D555
:1001C0009142D6D37047000000230024002500266A
:1001D000103A28BF78C1FBD8520728BF30C148BFAA
:1001E0000B607047642900F09D80752900F09A80AB
:1001F000782900F0D380632900F02782732900F06A
:100200002C82002070471FB51FBD10B510BD00F037
:1002100057FA1146FFF7F7FF04F022FF00F075FAD6
:1002200003B4FFF7F2FF03BC04F089FD09488047DF
:1002300009480047FEE7FEE7FEE7FEE7FEE7FEE7C8
:10024000FEE7FEE7FEE7FEE704480549034A054BE3
:10025000704700008D49000831010008100400209B
:100260001008002010040020704700000FB404495B
:1002700010B503AA029800F0F5F910BC5DF814FB64
:100280008001002070B5044685690068C10601D56B
:10029000302600E02026C00707D070BDD4E9012138
:1002A00030469047206A401C20626D1EF6D570BD16
:1002B00070B5044685690078C00707D170BDD4E9E0
:1002C000012120209047206A401C20626D1EF6D537
:1002D00070BD70B50C460546012A05D02878800609
:1002E00000D5EA69002302E0012305E05B1C93428C
:1002F00002D2E05C0028F9D1A869E618C01AA8610A
:10030000286A184428622846FFF7BCFF04E0D5E9B4
:10031000012114F8010B9047B442F8D32846FFF7A7
:10032000C7FF70BD2DE9F04106460024106875290D
:10033000314616A510D0AFF30080002802DA404203
:1003400013A507E031688A0701D512A502E0490725
:1003500004D511A5012401E0AFF3008000210A2299
:1003600006F1240709E0B0FBF2FCB0FBF2F302FB5C
:100370001C00303078541846491C0028F3D123461D
:100380002A463046BDE8F04100F0FCB8000000000D
:100390002D0000002B0000002000000070B5044676
:1003A0000D4621461068AFF300802188090502D56B
:1003B0000F4A7A4402E00E4A7A440E32002104F1D8
:1003C000240305E000F00F060009965D5E54491C09
:1003D0000028F7D120780023000704D5702D02D023
:1003E00009B1022311322046BDE8704000F0CAB8BE
:1003F000A08300002DE9F05F894604464FF0000A13
:10040000DFF874B1FB44C0F820A02046E1688847BB
:10041000002874D0252806D0D4E901219047206A0D
:10042000401C2062F1E700265F462046E1688847CD
:100430002028054607DB312D05D2781910F8200C4D
:1004400008B10643F1E7B00701D526F00406C4F869
:100450001CA00027C4F818A02A2D09D0284604F0B3
:1004600067FC38B304EB8708303DC8F8185019E032
:1004700059F8041B204604EB87029161E168884724
:10048000012F054618D1E069002820DA26F0200661
:100490001DE0D8F8180000EB800005EB4000303874
:1004A000C8F818002046E1688847054604F040FC7B
:1004B0000028EED1012F0AD02E2D08D12046E16868
:1004C00088477F1C0546022F46F02006C4DBA06942
:1004D000002803DA404246F00106A061F00701D08F
:1004E00026F010066C2D0BD0682D09D04C2D39D07C
:1004F0006A2D35D0742D35D07A2D33D016E038E002
:10050000E1682F4620468847B842054609D16C2F3E
:1005100026D04FF48060E1680643204688470546B0
:1005200004E06C2F1AD04FF4807006430DB3A5F190
:100530004100192802D8203546F400664A4629466B
:10054000204626604E46FFF74DFE80B101280BD0B5
:10055000F61D26F0070000F1080956E74020E4E701
:100560008020D8E70020D6E706F104094DE72846A9
:1005700052E7206ABDE8F09F76830000704770471D
:10058000704770472DE9F0470D469946924604465C
:1005900000F124080168880604D5E06921F0100103
:1005A000216000E00120A84201DD471B00E0002798
:1005B000A1697A1902EB0900081AA0612078C00627
:1005C00002D42046FFF75EFE002608E0D4E90121B0
:1005D0001AF806009047206A401C761C20624E459F
:1005E000F4DB2078C0060AD52046FFF74BFE06E074
:1005F000D4E9012130209047206A401C2062381E37
:10060000A7F10107F4DC07E0D4E9012118F805009F
:100610009047206A401C2062281EA5F10105F3DCEA
:100620002046FFF745FE2078000602D50220BDE8EF
:10063000F0870120FBE710B5436913B1AFF30080E9
:1006400001E0FFF746FE012010BD127800F1240101
:100650000A7000224A700122EDE711684FF0FF3264
:10066000E9E70000074B70B50D467B4400F011F838
:100670000446284600F020F810B14FF0FF3070BD5E
:10068000204670BDDB49000001694A1C0261087800
:10069000704700B58FB0CDE90131002105910549C2
:1006A0007944CDE9031011466846FFF7A3FE0FB069
:1006B00000BD0000E5FFFFFF007B00F080007047F9
:1006C000754600F02BF8AE4605006946534620F00B
:1006D0000700854618B020B5FFF7B6FDBDE82040FD
:1006E0004FF000064FF000074FF000084FF0000BEE
:1006F00021F00701AC46ACE8C009ACE8C009ACE8A1
:10070000C009ACE8C0098D46704710B50446AFF388
:1007100000802046BDE81040FFF782BD00487047CA
:10072000B003002010B502F12804A0420BDC283AE7
:10073000904208DB03F12800814204DC283B994207
:1007400001DB012010BD002010BDFEE77047000056
:1007500010B50A2004F044FC0121094800F004FA15
:10076000012806D10749D1F8A00138B10020C1F80D
:10077000A001BDE81040012000F0A6B80120F6E776
:10078000000801400080214210B50A2004F028FC36
:100790000421094800F0E8F930B90849D1F894017A
:1007A00038B10020C1F89401BDE81040042000F0E9
:1007B0008BB80120F6E700000018014000802142BC
:1007C00010B50A2004F00CFC0821094800F0CCF90F
:1007D00030B90849D1F8940138B10020C1F894012A
:1007E000BDE81040082000F06FB80120F6E70000D7
:1007F000001801400000234210B50A2004F0F0FB6D
:100800001021094800F0B0F930B90849D1F8940135
:1008100038B10020C1F89401BDE81040102000F06C
:1008200053B80120F6E70000001801400080214283
:100830003EB50821002000F009F94FF48070002433
:1008400000908DF8044008208DF8050001258DF8F2
:100850000650684600F04EF817208DF808008DF815
:1008600009408DF80A408DF80B5002A803F002FDF4
:100870003EBD000070B54FF48074204600F02AF8A9
:10088000012815D10D4A0E4D0020117811B1012912
:100890000AD00DE00B4BC3F8980101211170C5F887
:1008A0008C11C3F8981103E0C5F88C010220107078
:1008B0002046BDE8704000F007B800007401002039
:1008C00000802142008022420149086070470000F8
:1008D00014040140064A014600201268044B0A40F5
:1008E00014331B680B4202D0002A00D0012070474D
:1008F0000004014030B51A4A8379016853B3136884
:100900008B431360111D0B680468A3430B600179CE
:1009100011440B68046823430B60114B08331968BA
:100920000468A14319601C1D21680568A943216062
:100930004179102905D011440A68006802430A6011
:1009400030BD1968026811431960216800680143CD
:10095000216030BD0079104402688A43026030BDD6
:10096000000401408000A0F1C0400029016802D0CD
:1009700041F0010101E0024A1140016070470000AE
:10098000FEFF0F0010B5D0E901121143D0E9032397
:100990001A4311434269114382691143C2691143E9
:1009A000026A1143426A1143826A1143C26A1143C7
:1009B000026B114302689200A2F1C042116081688B
:1009C000082907D101688900A1F1C0410A6842F0F5
:1009D00040020A60416BD1E9002342EA03128B68AE
:1009E0008C891B0243EA04431A430B8A42EA0352EE
:1009F0000B7D896942EA03620A4301688900A1F11B
:100A0000C0414A60C16AB1F5804F08D000686FF0FC
:100A100070418000A0F1C040C0F8041110BD816B8E
:100A2000D1E9002342EA03128B680C8A1B0243EAD5
:100A300004531A430B7D896942EA036200680A4342
:100A40008000A0F1C040C0F8042110BD10B58A0795
:100A500021F003040649120F21440F238C689340B0
:100A60009C438C608B68904003438B6010BD0000FA
:100A700000000140F0B5CC78002204F00F03E4063A
:100A800001D58C7823430C784FF00F0C14F0FF0F36
:100A90004FF0010E1BD005680E880EFA02F42640B6
:100AA000A64210D196000CFA06F725EA070703FACA
:100AB00006F5CE783D43282E02D0482E02D002E023
:100AC000446100E00461521C082AE5D305600A88ED
:100AD000FF2A1CD94468002202F108060EFA06F526
:100AE0000E882E40AE420ED196000CFA06F7BC439B
:100AF00003FA06F7CE783C43282E00D14561CE7824
:100B0000482E00D10561521C082AE5D34460F0BD8F
:100B1000F0B5144C002801DAE36900E06368450D84
:100B20002E0185B2C0F30157B540C0F30342032F35
:100B300005D0C6020AD503269640B34307E023F04A
:100B40007062636823F07063636002E0AB4343F05C
:100B5000706201B12A43002801DAE261F0BD6260EF
:100B6000F0BD0000000001400246002092680A42E9
:100B700000D0012070474161704701617047FEE776
:100B80002DE9F043174F0646002438887D884543F9
:100B9000B888A0F5D041043902D1B879012807D02E
:100BA0000021084603F01EFA03F050FB0E4815E042
:100BB0000020B8714FF02A09A7F80A904FF02B08CF
:100BC000A7F80C80014603F00DFA0120B871A7F8D0
:100BD0000A80A7F80C90E7E70680641CAC42FBD3C0
:100BE000BDE8F083DA0200200008006C2DE9F04F28
:100BF0004A492A232B24898845F2105A4FF4305B46
:100C00004FF4285E4FF448754FF0F00C49F241392B
:100C10004FF4A07745F210364FF4F07280B13F48A0
:100C20004FF00108494580F806800780A0F802C00F
:100C300001D0B1423ED12C2505814381848157E00A
:100C400036484FF00008494580F80680A0F800C0FB
:100C5000478006D0A1F5D04CBCF1040C01D0B142C4
:100C60000CD12C2505814381A1F5D0438481043B1F
:100C700001D0B14244D10780428041E0514507D1C3
:100C8000A0F808B0A0F80AE04FF42C5181810EE0E2
:100C9000A1F5C856633E06D0222101812021418161
:100CA000212181812CE02C210181448183810280DA
:100CB000458025E0A1F5D04CBCF1040C09D051458C
:100CC0000BD1A0F808B0A0F80AE04FF42C538381B0
:100CD00021E02C250581448109E0A1F5C85CBCF127
:100CE000630C12D02223038121234381202383819B
:100CF000A1F5D043043B01D0B14201D1028047802D
:100D0000BDE8F04F002003F099B84FF02C0CA0F88C
:100D100008C04381848105804280E9E7DA0200202F
:100D200000B503F05FF903F091FA02480249008828
:100D3000088000BD700100200008006C2DE9FC4F08
:100D400080460024154603200F46A0EB450649E0E7
:100D5000781B81B208EB040A01901FFA8AF0FFF7B2
:100D6000DFFF381B81B208EB050900901FFA89F0FC
:100D7000FFF7D6FF07EB040B1FFA8BF11FFA89F080
:100D8000FFF7CEFF07EB05091FFA89F11FFA8AF07A
:100D9000FFF7C6FFA8EB040A1FFA89F11FFA8AF0D1
:100DA000FFF7BEFFA8EB05091FFA8BF11FFA89F0C8
:100DB000FFF7B6FF019881B21FFA8AF0FFF7B0FF84
:100DC000009881B21FFA89F0FFF7AAFF641C002E79
:100DD00003DA06EB8406B61D04E0601B06EB800612
:100DE0006D1E0A36AC42B3DDBDE8FC8F2DE9F04F35
:100DF000DFF81081934642460B46B8F804500C0ABF
:100E0000DFF804A19189060A5289A5F513470AF172
:100E10000209413F19D0A5F5A647103F15D0A5F509
:100E2000AA47103F1CD04746A5F5C85CBE793F884D
:100E30003F1A7F1EBCF1630C27D0A5F5D04CBCF146
:100E4000040C3AD0012E4AD04AE0AAF800204A46C3
:100E5000A9F80060C0B2A9F80000AAF800103AE0B2
:100E6000AAF80020A9F80060521CAAF80020C0B21D
:100E7000A9F80000AAF80010A9F80040491CAAF837
:100E80000010D8B2A9F8000033E006B9B8B2AAF849
:100E90000020050A4A46A9F80050C7B2A9F8007018
:100EA000A9F80050C0B2A9F80000AAF80010A9F8EB
:100EB0000040D8B2A9F800000DE0012E00D1B8B270
:100EC000AAF80020050A4A46A9F80050C0B2A9F8BD
:100ED0000000AAF800101480D8B2108009E0B8B25F
:100EE0000146104603F0BCF9B8F80C00194603F0AF
:100EF000B7F9B8F80810AAF80010A9F800B0BDE8D2
:100F0000F08F0000DA020020FE07006C2DE9F843A4
:100F10001F4D1F468046AB88089EA3F5D04004387D
:100F200002D1A879012807D0A2EB0800401C85B2A5
:100F30000C46DFF8609028E02B880846991A0024B8
:100F4000AC713A462A24A3EB08036C812B27491E77
:100F50005B1EAF8189B29BB20096FFF7D7FF0120DD
:100F6000A8716F81AC81BDE8F8832146404603F04B
:100F700039F803F06BF90020494602E00E80401C6E
:100F800080B2A842FAD3641CA4B2BC42EDD9EAE70D
:100F9000DA0200200008006C2DE9F04F01210E025A
:100FA0009FB0304603F016FB01214FF4B47003F0FC
:100FB00029FB0320ADF83C0010248DF83F408DF84C
:100FC0003E000FA9FE4D2846FFF754FD4CF233704A
:100FD000ADF83C0018208DF83F0003208DF83E004E
:100FE0000FA9F848FFF746FD4FF68070ADF83C00BA
:100FF00018208DF83F0003208DF83E000FA9F2481D
:10100000FFF738FD41F20100ADF83C0018208DF8E3
:101010003F0003208DF83E000FA9EC48FFF72AFDA2
:101020004FF001080020CDE91780CDE919801B9011
:101030001C901D901090CDE9110814901590062178
:101040001690CDE90010CDE902041390049021021E
:10105000CDE908010690059007908900CDE90A01C5
:101060000C9017A80D9010A80E906846FFF78AFC08
:1010700001210620FFF776FC02212846FFF77BFDC1
:10108000322003F0ADFF02212846FFF776FD322023
:1010900003F0A6FF002002F0A7FECD4ACD4C49F296
:1010A000413AA51C908046F6040B45F210514FF6CC
:1010B000FF79FF2804D3484502D0B0F5134F6FD114
:1010C000D320208002F086FE908002F083FE908084
:1010D00002F080FE09EA00204F46908002F07AFE7E
:1010E00093881843908050455AD0BF20208002F04A
:1010F00071FE908002F06EFE908002F06BFE908098
:1011000002F068FE07EA0020908002F063FE9388F8
:1011100018439080584543D0D420208002F05AFED6
:10112000908002F057FE908002F054FE07EA002003
:10113000908002F04FFE93881843A0F5A64390805C
:10114000103B2DD04FF45A40208002F043FE908097
:101150004FF45B40208002F03DFE07EA00209080C3
:101160004FF45C40208002F035FE93881843908055
:10117000B0F5004F7ED0884212D0A120208002F02E
:1011800029FE908002F026FE07EA0020908002F0FF
:1011900021FE93881843A0F5AE439080613B6AD04E
:1011A00080B2504568D1CF20208000202880C12007
:1011B000288030202880ED20208064202880032093
:1011C00028801220288081202880E8202080852007
:1011D0002880102028807A202880CB202080392069
:1011E00028802C202880002028803420288002207D
:1011F0002880F720208020202880EA2020800020DE
:1012000028802880C02020801B202880C1202080AA
:1012100001202880C5202080302028802880C720F9
:101220002080B720288036202080482028803A203F
:10123000208055202880B1202080002028801A207E
:101240002880B62020800A202880A2202880F22032
:101250002080002028802620208001202880E02077
:1012600020800F2028802A202880282028800820FD
:10127000288002E04CE046E04CE00E202880082068
:10128000288054202880A9202880432028800A20F4
:1012900028800F202880002028802880288028800F
:1012A000E120208000202880152028801720288019
:1012B0000720288011202880062028802B202880C5
:1012C000562028803C202880052028801020288057
:1012D0000F2028803F20288028800F2028802B2066
:1012E0002080002028802880012028803F2028801E
:1012F0002A2020800020288028802880EF20288035
:101300001120208080E041F66310908002F0DABC6A
:10131000918086E058457DD111202080142003F073
:101320005FFED020208007202880422028801D20BA
:101330002880D1202080002028801A2028800920A1
:101340002880D22020800120288022202880C020D0
:101350002080102028803B20288000202880022028
:10136000288011202880C520208003202880C820C4
:10137000208000202880252028802120288005200A
:101380002880002028800A202880652028802520A9
:10139000288077202880502028800F202880002057
:1013A0002880F820208001202880FE202080002036
:1013B00028800220288020202080362020800BE0FA
:1013C000000C0140001401400018014000200140C1
:1013D000DA020020FE07006C082028803A202080D6
:1013E000552028802B202080002028802880012064
:1013F00028803F2028802A202080002028802880E4
:1014000001202880DF202880782003F0E9FD2920B2
:10141000FEE3FFE7A0F5A642103A7DD0884241F0F6
:1014200029844FF470435521184602F019FF4FF2FA
:101430000105AA21284602F013FF6E1C52213046F6
:1014400002F00EFFAF1C0821384602F009FF4FF2F0
:10145000040A0121504602F003FF0D214FF43040F1
:1014600002F0FEFE0D214BF2010002F0F9FE0D210B
:101470004BF2020002F0F4FE4FF4364B3421584692
:1014800002F0EEFE34214BF2016002F0E9FE34215D
:101490004BF2026002F0E4FE0D214FF4314002F005
:1014A000DFFE0D214BF2011002F0DAFE0D214BF2AE
:1014B000021002F0D5FE34214FF4374002F0D0FE86
:1014C00034214BF2017002F0CBFE34214BF202705A
:1014D00002F0C6FE00214FF4324002F0C1FE0021AE
:1014E0004BF2012002F0BCFE00214BF2022002F080
:1014F000B7FE24214FF4384002F0B2FE24214BF60F
:10150000010002F0ADFE24214BF6020002F0A8FE1D
:1015100001214FF43F4000E0FEE302F0A1FE0F2165
:101520004FF4334002F09CFE0F214BF2013002F0E9
:1015300097FE0F214BF2023002F092FE34214FF45D
:10154000394002F08DFE34214BF6011002F088FE86
:1015500034214BF6021002F083FE08214FF435408F
:1015600002F07EFE08214BF2015002F079FE0821C4
:101570004BF2025002F074FE03214FF4424002F09D
:101580006FFE24214FF43A4002F06AFE24214BF60C
:10159000012002F065FE24214BF6022002F060FEDD
:1015A00000214FF43C4002F05BFE78214BF60140F5
:1015B00002F056FE00214BF6024002F051FE0021DF
:1015C0004FF43D4002F04CFE78214BF6015002F002
:1015D00047FE00214BF6025002F042FE00214FF47C
:1015E0003E4002F03DFE64214BF6016002F038FE01
:1015F00000214FF4514002F033FE33214DF201102F
:1016000002F02EFE00214DF2021002F029FE3421DC
:101610004DF2031002F024FE00214DF2041002F0FE
:101620001FFE3A214DF2051002F01AFE00214DF284
:10163000061002F015FE4A214DF2071002F010FECE
:1016400000214DF2081002F00BFE5C214DF2091052
:1016500002F006FE00214DF20A1002F001FE812187
:101660004DF20B1002F0FCFD00214DF20C1002F0C7
:10167000F7FDA6214DF20D1002F0F2FD00214DF212
:101680000E1002F0EDFDE5214DF20F1002F0E8FD25
:1016900001214DF2101002F0E3FD13214DF2111063
:1016A00002F0DEFD01214DF2121002F0D9FD5421AD
:1016B0004DF2131002F0D4FD01214DF2141002F08E
:1016C000CFFD82214DF2151002F0CAFD01214DF22D
:1016D000161002F0C5FDCA214DF2171002F0C0FD30
:1016E00002214DF2181002F0BBFD00214DF219103D
:1016F00002F0B6FD02214DF21A1002F0B1FD0121F7
:101700004DF21B1002F0ACFD02214DF21C1002F054
:10171000A7FD34214DF21D1002F0A2FD02214DF271
:101720001E1002F09DFD67214DF21F1002F098FD82
:1017300002214DF2201002F093FD84214DF2211080
:1017400002F08EFD02214DF2221002F089FDA4214B
:101750004DF2231002F084FD02214DF2241002F01C
:101760007FFDB7214DF2251002F07AFD02214DF2E6
:10177000261002F075FDCF214DF2271002F070FD0A
:1017800002214DF2281002F06BFDDE214DF22910EE
:1017900002F066FD02214DF22A1002F061FDF221F5
:1017A0004DF22B1002F05CFD02214DF22C1002F0E4
:1017B00057FDFE214DF22D1002F052FD03214DF296
:1017C0002E1002F04DFD10214DF22F1002F048FDB9
:1017D00003214DF2301002F043FD33214DF2311060
:1017E00002F03EFD03214DF2321002F039FD6D2171
:1017F0004DF2331002F034FD00214FF4524002F05C
:101800002FFD33214DF2012002F02AFD00214DF27F
:10181000022002F025FD34214DF2032002F020FDCC
:1018200000214DF2042002F01BFD3A214DF205206B
:1018300002F016FD00214DF2062002F011FD4A21B2
:101840004DF2072002F00CFD00214DF2082002F0BD
:1018500007FD5C214DF2092002F002FD00214DF24E
:101860000A2002F0FDFC81214DF20B2002F0F8FC71
:1018700000214DF20C2002F0F3FCA6214DF20D20C8
:1018800002F0EEFC00214DF20E2002F0E9FCE52111
:101890004DF20F2002F0E4FC01214DF2102002F085
:1018A000DFFC13214DF2112002F0DAFC01214DF290
:1018B000122002F0D5FC54214DF2132002F0D0FC8E
:1018C00001214DF2142002F0CBFC82214DF21520B3
:1018D00002F0C6FC01214DF2162002F0C1FCCA2123
:1018E0004DF2172002F0BCFC02214DF2182002F04C
:1018F000B7FC00214DF2192002F0B2FC02214DF29A
:101900001A2002F0ADFC01214DF21B2002F0A8FCD0
:1019100002214DF21C2002F0A3FC34214DF21D20C7
:1019200002F09EFC02214DF21E2002F099FC67217C
:101930004DF21F2002F094FC02214DF2202002F013
:101940008FFC84214DF2212002F08AFC02214DF20D
:10195000222002F085FCA4214DF2232002F080FC1D
:1019600002214DF2242002F07BFCB7214DF225200C
:1019700002F076FC02214DF2262002F071FCCF210C
:101980004DF2272002F06CFC02214DF2282002F0DB
:1019900067FCDE214DF2292002F062FC02214DF2AB
:1019A0002A2002F05DFCF2214DF22B2002F058FCBF
:1019B00002214DF22C2002F053FCFE214DF22D208D
:1019C00002F04EFC03214DF22E2002F049FC1021C2
:1019D0004DF22F2002F044FC03214DF2302002F0A2
:1019E0003FFC33214DF2312002F03AFC03214DF24D
:1019F000322002F035FC6D214DF2332002F030FC34
:101A000000214FF4534002F02BFC33214DF2013002
:101A100002F026FC00214DF2023002F021FC3421BC
:101A20004DF2033002F01CFC00214DF2043002F0B4
:101A300017FC3A214DF2053002F012FC00214DF264
:101A4000063002F00DFC4A214DF2073002F008FC8E
:101A500000214DF2083002F003FC5C214DF2093008
:101A600002F0FEFB00214DF20A3002F0F9FB812169
:101A70004DF20B3002F0F4FB00214DF20C3002F07D
:101A8000EFFBA6214DF20D3002F0EAFB00214DF2F2
:101A90000E3002F0E5FBE5214DF20F3002F0E0FBE5
:101AA00001214DF2103002F0DBFB13214DF2113019
:101AB00002F0D6FB01214DF2123002F0D1FB54218D
:101AC0004DF2133002F0CCFB01214DF2143002F044
:101AD000C7FB82214DF2153002F0C2FB01214DF20D
:101AE000163002F0BDFBCA214DF2173002F0B8FBF0
:101AF00002214DF2183002F0B3FB00214DF21930F3
:101B000002F0AEFB02214DF21A3002F0A9FB0121D6
:101B10004DF21B3002F0A4FB02214DF21C3002F00A
:101B20009FFB34214DF21D3002F09AFB02214DF251
:101B30001E3002F095FB67214DF21F3002F090FB42
:101B400002214DF2203002F08BFB84214DF2213036
:101B500002F086FB02214DF2223002F081FBA4212B
:101B60004DF2233002F07CFB02214DF2243002F0D2
:101B700077FBB7214DF2253002F072FB02214DF2C6
:101B8000263002F06DFBCF214DF2273002F068FBCA
:101B900002214DF2283002F063FBDE214DF22930A4
:101BA00002F05EFB02214DF22A3002F059FBF221D5
:101BB0004DF22B3002F054FB02214DF22C3002F09A
:101BC0004FFBFE214DF22D3002F04AFB03214DF276
:101BD0002E3002F045FB10214DF22F3002F040FB79
:101BE00003214DF2303002F03BFB33214DF2313016
:101BF00002F036FB03214DF2323002F031FB6D2151
:101C00004DF2333002F02CFB00214FF4544000E041
:101C100084E302F025FB33214DF2014002F020FB6A
:101C200000214DF2024002F01BFB34214DF2034033
:101C300002F016FB00214DF2044002F011FB3A21A4
:101C40004DF2054002F00CFB00214DF2064002F07F
:101C500007FB4A214DF2074002F002FB00214DF242
:101C6000084002F0FDFA5C214DF2094002F0F8FA5A
:101C700000214DF20A4002F0F3FA81214DF20B40AF
:101C800002F0EEFA00214DF20C4002F0E9FAA62132
:101C90004DF20D4002F0E4FA00214DF20E4002F048
:101CA000DFFAE5214DF20F4002F0DAFA01214DF2A0
:101CB000104002F0D5FA13214DF2114002F0D0FA93
:101CC00001214DF2124002F0CBFA54214DF21340A3
:101CD00002F0C6FA01214DF2144002F0C1FA82214D
:101CE0004DF2154002F0BCFA01214DF2164002F00F
:101CF000B7FACA214DF2174002F0B2FA02214DF2B2
:101D0000184002F0ADFA00214DF2194002F0A8FA95
:101D100002214DF21A4000E003E302F0A1FA012192
:101D20004DF21B4002F09CFA02214DF21C4002F0E1
:101D300097FA34214DF21D4002F092FA02214DF241
:101D40001E4002F08DFA67214DF21F4002F088FA22
:101D500002214DF2204002F083FA84214DF221400D
:101D600002F07EFA02214DF2224002F079FAA4211B
:101D70004DF2234002F074FA02214DF2244002F0A9
:101D80006FFAB7214DF2254002F06AFA02214DF2B6
:101D9000264002F065FACF214DF2274002F060FAAA
:101DA00002214DF2284002F05BFADE214DF229407B
:101DB00002F056FA02214DF22A4002F051FAF221C5
:101DC0004DF22B4002F04CFA02214DF22C4002F071
:101DD00047FAFE214DF22D4002F042FA03214DF266
:101DE0002E4002F03DFA10214DF22F4002F038FA59
:101DF00003214DF2304002F033FA33214DF23140ED
:101E000002F02EFA03214DF2324002F029FA6D2140
:101E10004DF2334002F024FA00214FF4554002F015
:101E20001FFA33214DF2015002F01AFA00214DF24F
:101E3000025002F015FA34214DF2035002F010FA6C
:101E400000214DF2045002F00BFA3A214DF20550F8
:101E500002F006FA00214DF2065002F001FA4A2182
:101E60004DF2075002F0FCF900214DF2085002F04B
:101E7000F7F95C214DF2095002F0F2F900214DF220
:101E80000A5002F0EDF981214DF20B5002F0E8F911
:101E900000214DF20C5002F0E3F9A6214DF20D5055
:101EA00002F0DEF900214DF20E5002F0D9F9E521E1
:101EB0004DF20F5002F0D4F901214DF2105002F012
:101EC000CFF913214DF2115002F0CAF901214DF260
:101ED000125002F0C5F954214DF2135002F0C0F92E
:101EE00001214DF2145002F0BBF982214DF2155040
:101EF00002F0B6F901214DF2165002F0B1F9CA21F3
:101F00004DF2175002F0ACF902214DF2185002F0D8
:101F1000A7F900214DF2195002F0A2F902214DF269
:101F20001A5002F09DF901214DF21B5002F098F970
:101F300002214DF21C5002F093F934214DF21D5054
:101F400002F08EF902214DF21E5002F089F967214C
:101F50004DF21F5002F084F902214DF2205002F0A0
:101F60007FF984214DF2215002F07AF902214DF2DD
:101F7000225002F075F9A4214DF2235002F070F9BD
:101F800002214DF2245002F06BF9B7214DF2255099
:101F900002F066F902214DF2265002F061F9CF21DC
:101FA0004DF2275002F05CF902214DF2285002F068
:101FB00057F9DE214DF2295002F052F902214DF27B
:101FC0002A5002F04DF9F2214DF22B5002F048F95F
:101FD00002214DF22C5002F043F9FE214DF22D501A
:101FE00002F03EF903214DF22E5002F039F9102192
:101FF0004DF22F5002F034F903214DF2305002F02F
:102000002FF933214DF2315002F02AF903214DF21C
:10201000325002F025F96D214DF2335002F020F9D3
:1020200000214FF4564002F01BF933214DF20160BC
:1020300002F016F900214DF2026002F011F934218C
:102040004DF2036002F00CF900214DF2046002F041
:1020500007F93A214DF2056002F002F900214DF234
:10206000066002F0FDF84A214DF2076002F0F8F830
:1020700000214DF2086002F0F3F85C214DF2096096
:1020800002F0EEF800214DF20A6002F0E9F8812139
:102090004DF20B6002F0E4F800214DF20C6002F00A
:1020A000DFF8A6214DF20D6002F0DAF800214DF2C2
:1020B0000E6002F0D5F8E5214DF20F6002F0D0F885
:1020C00001214DF2106002F0CBF813214DF21160A6
:1020D00002F0C6F801214DF2126002F0C1F854215D
:1020E0004DF2136002F0BCF801214DF2146002F0D1
:1020F000B7F882214DF2156002F0B2F801214DF2DD
:10210000166002F0ADF8CA214DF2176002F0A8F88F
:1021100002214DF2186002F0A3F800214DF219607F
:1021200002F09EF802214DF21A6002F099F80121A6
:102130004DF21B6002F094F802214DF21C6002F097
:102140008FF834214DF21D6002F08AF802214DF221
:102150001E6002F085F867214DF21F6002F080F8E2
:1021600002214DF2206002F07BF884214DF22160C3
:1021700002F076F802214DF2226002F071F8A421FB
:102180004DF2236002F06CF802214DF2246002F05F
:1021900067F8B7214DF2256002F062F802214DF296
:1021A000266002F05DF8CF214DF2276002F058F86A
:1021B00002214DF2286002F053F8DE214DF2296031
:1021C00002F04EF802214DF22A6002F049F8F221A5
:1021D0004DF22B6002F044F802214DF22C6002F027
:1021E0003FF8FE214DF22D6002F03AF803214DF246
:1021F0002E6002F035F810214DF22F6002F030F819
:1022000003214DF2306002F02BF833214DF23160A2
:1022100002F026F803214DF2326002F021F86D2120
:102220004DF2336002F01CF85521184602F018F800
:10223000AA21284602F014F85221304602F010F884
:102240000821384602F00CF80021504602F008F848
:10225000CC214FF4314002F003F800214BF2011081
:1022600001F0FEFF0521584601F0FAFF70214FF4FE
:10227000374001F0F5FF70214BF2017001F0F0FFE3
:1022800001214FF4384001F0EBFF03214BF6010030
:1022900001F0E6FF03214BF6020001F0E1FF03210C
:1022A0004BF6030001F0DCFF02214FF43C4001F04B
:1022B000D7FF00214BF6014001F0D2FF00214BF681
:1022C000024001F0CDFFD0214FF4494001F0C8FF9A
:1022D00002214CF6011001F0C3FF50214CF6021010
:1022E00001F0BEFF50214CF6031001F0B9FF502160
:1022F0004CF6041001F0B4FF00214FF4545001F0EB
:10230000AFFF55214FF4685001F0AAFF4FF48850F9
:102310002080782002F07EFE4FF42450208001F0CF
:102320004BBDED20208001202880FE202880EE205B
:102330002080DE20288021202880F120208001209C
:102340002880DF20208010202880C42020808F203B
:102350002880C620208000202880E2202880288035
:102360002880BF202080AA202880B02020800D2037
:102370002880002028800D2028800020288011201F
:1023800028800020288019202880002028802120F3
:102390002880002028802D202880002028803D20B3
:1023A0002880002028805D202880002028805D2053
:1023B000288000202880B1202080802028800020D4
:1023C00028808B20288000202880962028800020CC
:1023D0002880B220208000202880288002202880A9
:1023E000002028800320288000202880B32020801F
:1023F0000020288028802880288028802880288025
:10240000288028802880288028802880288028808C
:10241000288028802880288028802880288028807C
:102420002880B42020808B202880002028809620BF
:10243000288000202880A120288000202880B52026
:10244000208002202880002028800320288000206F
:1024500028800420288000202880B62020800020AA
:1024600028802880B72020800020288028803F20D6
:102470002880002028805E2028800020288064207A
:102480002880002028808C20288000202880AC20F4
:10249000288000202880DC202880002028807020D0
:1024A0002880002028809020288000202880EB2091
:1024B000288000202880DC20288000202880B82068
:1024C000208000202880288028802880288028805C
:1024D00028802880BA20208024202880002028807E
:1024E00028802880C120208020202880002028806B
:1024F0005420288000202880FF2028800020288069
:10250000C22020800A2028800020288004202880E3
:1025100000202880C32020803C20288000202880A4
:102520003A20288000202880392028800020288018
:1025300037202880002028803C2028800020288008
:102540003620288000202880322028800020288003
:102550002F202880002028802C2028800020288000
:1025600029202880002028802620288000202880FC
:1025700024202880002028802420288000202880F3
:1025800023202880002028803C20288000202880CC
:1025900036202880002028803220288000202880B3
:1025A0002F202880002028802C20288000202880B0
:1025B00029202880002028802620288000202880AC
:1025C00024202880002028802420288000202880A3
:1025D0002320288000202880C4202080622028809A
:1025E0000020288005202880002028808420288042
:1025F00000202880F02028800020288018202880B3
:1026000000202880A42028800020288018202880EE
:102610000020288050202880002028800C2028803E
:1026200000202880172028800020288095202880DE
:1026300000202880F320288000202880E6202880A1
:1026400000202880C520208032202880002028807B
:1026500044202880002028806520288000202880B1
:10266000762028800020288088202880002028804C
:10267000C620208020202880002028801720288045
:10268000002028800120288000202880C72020806A
:1026900000202880288028802880C82020800020D2
:1026A0002880288028802880C92020800020288039
:1026B00028802880288028802880288028802880DA
:1026C0002880288028802880288028802880E02072
:1026D000208016202880002028801C2028800020B0
:1026E0002880212028800020288036202880002073
:1026F0002880462028800020288052202880002022
:10270000288064202880002028807A2028800020CB
:1027100028808B2028800020288099202880002075
:102720002880A820288000202880B9202880002028
:102730002880C420288000202880CA2028800020EB
:102740002880D220288000202880D92028800020BE
:102750002880E020288000202880F3202880002086
:102760002880E120208016202880002028801C203E
:1027700028800020288022202880002028803620E1
:102780002880002028804520288000202880522092
:1027900028800020288064202880002028807A203B
:1027A0002880002028808B202880002028809920E5
:1027B000288000202880A820288000202880B92098
:1027C000288000202880C420288000202880CA205B
:1027D000288000202880D220288000202880D8202F
:1027E000288000202880E020288000202880F320F6
:1027F000288000202880E2202080052028800020DA
:1028000028800B202880002028801B202880002082
:102810002880342028800020288044202880002020
:1028200028804F20288000202880612028800020D8
:102830002880792028800020288088202880002077
:1028400028809720288000202880A620288000202B
:102850002880B720288000202880C22028800020DF
:102860002880C720288000202880D12028800020B0
:102870002880D620288000202880DD202880002085
:102880002880F320288000202880E3202080052055
:102890002880002028800A202880002028801C20F2
:1028A0002880002028803320288000202880442091
:1028B0002880002028805020288000202880622046
:1028C00028800020288078202880002028808820E8
:1028D0002880002028809720288000202880A6209B
:1028E000288000202880B720288000202880C2204F
:1028F000288000202880C720288000202880D12020
:10290000288000202880D520288000202880DD20F5
:10291000288000202880F320288000202880E420C0
:10292000208001202880002028800120288000208D
:10293000288002202880002028802A20288000204B
:1029400028803C202880002028804B2028800020E0
:1029500028805D2028800020288074202880002086
:102960002880842028800020288093202880002030
:102970002880A220288000202880B32028800020E2
:102980002880BE20288000202880C42028800020A5
:102990002880CD20288000202880D3202880002077
:1029A0002880DD20288000202880F3202880002037
:1029B0002880E5202080002028802880288028800A
:1029C00002202880002028802920288000202880BC
:1029D0003C202880002028804B2028800020288050
:1029E0005D202880002028807420288000202880F6
:1029F00084202880002028809320288000202880A0
:102A0000A220288000202880B32028800020288051
:102A1000BE20288000202880C42028800020288014
:102A2000CD20288000202880D320288000202880E6
:102A3000DC20288000202880F320288000202880A7
:102A4000E620208011202880002028803420288043
:102A5000002028805620288000202880762028808A
:102A60000020288077202880002028806620288069
:102A70000020288088202880002028809920288015
:102A800000202880BB2028800020288099202880D2
:102A9000002028806620288000202880552028805B
:102AA000002028805520288000202880452028806C
:102AB000002028804320288000202880442028806F
:102AC00000202880E72020803220288000202880D5
:102AD000552028800020288076202880002028800B
:102AE00066202880002028806720288000202880F9
:102AF00067202880002028808720288000202880C8
:102B00009920288000202880BB2028800020288051
:102B10009920288000202880772028800020288085
:102B200044202880002028805620288000202880EB
:102B3000232028800020288033202880002028801F
:102B40004520288000202880E82020800020288040
:102B50002880992028800020288087202880002035
:102B60002880882028800020288077202880002046
:102B70002880662028800020288088202880002047
:102B80002880AA20288000202880BB2028800020C0
:102B90002880992028800020288066202880002016
:102BA000288055202880002028805520288000205B
:102BB000288044202880002028804420288000206D
:102BC00028805520288000202880E9202080AA2005
:102BD000288000202880288028802080AA20288023
:102BE000CF202080002028802880288028802880EE
:102BF0002880288028802880288028802880288095
:102C00002880288028802880F020208000202880AC
:102C1000502028800020288028802880F3202080D1
:102C200000202880F920208006202880102028807D
:102C300029202880002028803A20208055202880C4
:102C400011202080642002F0CBF92920208035203B
:102C500020800020288051202080FF2028805320C1
:102C600020802C20288055202080822028802C2025
:102C7000FFF754BBA0F513414FF4E06A4FF4274B24
:102C800025392ED0A0F5134140F2077728397DD0A1
:102C9000A0F513414FF4887B203978D0A0F513417B
:102CA000313975D0A0F5A841083972D0A0F5A851E6
:102CB0004FF4407B05396DD0A0F5354105396AD018
:102CC000A0F54541053967D0A0F58A4131397CD05E
:102CD000A0F58A41353979D0A0F5C851633976D04D
:102CE000FDE347F6F001E52001F0BAFA3146012094
:102CF00001F0B6FA5146022001F0B2FA41F2300179
:102D0000032001F0ADFA0021042001F0A9FA40F2FD
:102D10000221082001F0A4FA0021092001F0A0FA04
:102D200000210A2001F09CFA00210C2001F098FA01
:102D300000210D2001F094FA00210F2001F090FAFB
:102D40000021102001F08CFA0721112001F088FAEF
:102D50000021122001F084FA0021132001F080FAF2
:102D60000021072001F07CFA41F29061102001F06F
:102D700077FA40F22721112001F072FA9D211220EA
:102D800001F06EFA4FF4C851132006E082E03FE1F3
:102D9000E5E1BCE258E3FDE3FDE301F061FA252142
:102DA000292001F05DFA0D212B2001F059FA0721AD
:102DB000302001F055FA40F20331312001F050FA91
:102DC0000321322001F04CFA02E0E5E3E5E3E5E31C
:102DD00040F20621352001F043FA0821362001F0A7
:102DE0003FFA40F20641372001F03AFA4FF44171C0
:102DF000382001F035FA0721392001F031FA40F28C
:102E000002613C2001F02CFA08213D2001F028FA53
:102E10000021502001F024FAEF21512001F020FA86
:102E20000021522001F01CFA40F23F11532001F022
:102E300017FA5946602001F013FA0121612001F0D0
:102E40000FFA00216A2001F00BFA0021802001F026
:102E500007FA0021812001F003FA0021822001F00D
:102E6000FFF90021832001F0FBF90021842001F00B
:102E7000F7F90021852001F0F3F91021902001F0ED
:102E8000EFF94FF4C061922001F0EAF940F23311FA
:102E90000720EEE341F28F01EC2001F0E1F941F26D
:102EA0003421EF2001F0DCF93146012001F0D8F99E
:102EB0005146022001F0D4F941F23001032001F023
:102EC000CFF90021042001F0CBF940F202210820C3
:102ED00001F0C6F90021092001F0C2F900210A2001
:102EE00001F0BEF901210C2001F0BAF900210D20FA
:102EF00001F0B6F900210F2001F0B2F900211020F5
:102F000001F0AEF90721112001F0AAF900211220E9
:102F100001F0A6F90021132001F0A2F901210720F8
:102F200001F09EF9322002F05BF841F2904110204E
:102F300001F096F940F22721112001F091F9322099
:102F400002F04EF88A21122001F08AF9322002F0B4
:102F500047F84FF4D051132001F082F906212920BF
:102F600001F07EF90D212B2001F07AF9322002F0D8
:102F700037F80021202001F073F90021212001F011
:102F80006FF9322002F02CF80021302001F068F9AE
:102F900040F20461312001F063F940F20531322042
:102FA00001F05EF90021352001F05AF940F609419F
:102FB000362001F055F94FF40171372001F050F936
:102FC00040F20131382001F04BF93946392001F047
:102FD00047F900213C2001F043F940F60A213D2049
:102FE00001F03EF9322001F0FBFF0021502001F0FA
:102FF00037F9EF21512001F033F90021522001F07F
:103000002FF940F23F11532001F02AF9594653E1BC
:103010000021084601F024F93146012001F020F991
:103020005146022001F01CF941F23001032001F069
:1030300017F90021042001F013F940F202210820C1
:1030400001F00EF90021092001F00AF900210A20FF
:1030500001F006F901210C2001F002F900210D20F8
:1030600001F0FEF800210F2001F0FAF8322001F003
:10307000B7FF40F20111072001F0F2F8322001F011
:10308000AFFF4FF48651102001F0EAF8072111201C
:1030900001F0E6F85B465946122001F0E1F84FF4E2
:1030A0003061132001F0DCF80021292001F0D8F86C
:1030B00044F210012B2001F0D3F80021502001F040
:1030C000CFF8EF21512001F0CBF80021522001F080
:1030D000C7F840F23F11532001F0C2F84FF41C51E1
:1030E000602001F0BDF80121612001F0B9F8002154
:1030F0006A2001F0B5F80021802001F0B1F800212C
:10310000812001F0ADF80021822001F0A9F8002112
:10311000832001F0A5F80021842001F0A1F800210E
:10312000852001F09DF81021902001F099F80021F0
:10313000922001F095F80121932001F091F81946B1
:10314000952001F08DF80021972001F089F80021E9
:10315000982001F085F840F27311072087E341F2CF
:103160001401E72001F07CF83146012001F078F8E5
:103170004FF40071022001F073F841F2380103208E
:1031800001F06EF840F20221082001F069F80021F8
:10319000092001F065F800210A2001F061F8002102
:1031A0000C2001F05DF800210D2001F059F80021FC
:1031B0000F2001F055F80021102001F051F80721EF
:1031C000112001F04DF80021122001F049F80021F2
:1031D000132001F045F8C82001F002FF41F2906190
:1031E000102001F03DF840F22721112001F038F8BD
:1031F000322001F0F5FE0C21122001F031F83220CE
:1032000001F0EEFE4FF40061132001F029F81121C6
:10321000292001F025F80B212B2001F021F8322084
:1032200001F0DEFE0021202001F01AF840F23F13E9
:103230001946212001F014F80021302001F010F887
:103240004FF483742146312001F00AF80021322026
:1032500001F006F84FF40171352001F001F841F258
:103260000A61362000F0FCFF3946372000F0F8FFF5
:103270002146382000F0F4FF3946392000F0F0FFF5
:1032800040F202413C2000F0EBFF40F60F413D20B0
:1032900000F0E6FF0021502000F0E2FFEF21512076
:1032A00000F0DEFF0021522000F0DAFF1946532023
:1032B00000F0D6FF4FF41C51602000F0D1FF012137
:1032C000612000F0CDFF00216A2000F0C9FF00213D
:1032D000802000F0C5FF0021812000F0C1FF002107
:1032E000822000F0BDFF0021832000F0B9FF002103
:1032F000842000F0B5FF0021852000F0B1FF1021EF
:10330000902000F0ADFF4FF4C0619220FEE3314603
:10331000012000F0A5FF5146022000F0A1FF41F27C
:103320003001032000F09CFF0021042000F098FFF2
:1033300040F20721082000F093FF0021092000F04F
:103340008FFF00210A2000F08BFF00210C2000F0ED
:1033500087FF00210D2000F083FF00210F2000F0E7
:103360007FFF142001F03CFE41F2B061102000F01C
:1033700077FF0121112000F073FF0121172000F0D9
:103380006FFF4FF49C71122000F06AFF4FF4006150
:10339000132000F065FF0921292000F061FF0921B9
:1033A0002A2000F05DFF0021A42000F059FF002139
:1033B000502000F055FFEF21512000F051FF002177
:1033C000522000F04DFF40F23F11532000F048FF23
:1033D0004FF41C51602000F043FF0121612000F0F8
:1033E0003FFF00216A2000F03BFF0021802000F019
:1033F00037FF0021812000F033FF0021822000F000
:103400002FFF0021832000F02BFF0021842000F0FB
:1034100027FF0021852000F023FF1321902000F0DA
:103420001FFF0021922000F01BFF0321932000F0DA
:1034300017FF5946952000F013FF40F27311072043
:1034400000F00EFF322011E10021072000F008FFFC
:10345000322001F0C5FD4FF48E71122000F000FF04
:103460000121A42000F0FCFE0F21082000F0F8FE4E
:1034700008210A2000F0F4FE08210D2000F0F0FEE3
:103480003946302000F0ECFE0721312000F0E8FE44
:1034900040F20361322000F0E3FE544651463320EF
:1034A00000F0DEFE40F20221342000F0D9FE0221BD
:1034B000352000F0D5FE41F60F71362000F0D0FE29
:1034C0003946372000F0CCFE0021382000F0C8FE3D
:1034D0000021392000F0C4FE39463A2000E048E3DC
:1034E00000F0BEFE00213B2000F0BAFE07213C2088
:1034F00000F0B6FE00213D2000F0B2FE322001F0C7
:103500006FFD0121072000F0ABFE0121172000F024
:10351000A7FE322001F064FD4FF4BD51102000F0F1
:103520009FFE40F21721112000F09AFE4FF48F7198
:10353000122000F095FE4FF47061132000F090FE11
:1035400000212A2000F08CFE0A21292000F088FEAC
:103550004FF49F71122000F083FE0021502000F0F4
:103560007FFEEF21512000F07BFE0021522000F071
:1035700077FE40F23F11532000F072FE4FF41C51D1
:10358000602000F06DFE0121612000F069FE002145
:103590006A2004E06EE06BE134E2EBE292E300F0DB
:1035A0005FFE0021802000F05BFE0021812000F002
:1035B00057FE0021822000F053FE0021832000F0FE
:1035C0004FFE0021842000F04BFE0021852000F0FA
:1035D00047FE1321902000F043FE5946922000F050
:1035E0003FFE0521932000F03BFE0021952000F0D6
:1035F00037FE0021972000F033FE0021982000F0D4
:103600002FFE3146012000F02BFE2146022000F063
:1036100027FE41F23801032000F022FE00210420A1
:1036200000F01EFE00210C2000F01AFE00210F20E9
:1036300000F016FE0021202000F012FE00212120C3
:1036400000F00EFE2121072000F00AFE142001F0F8
:10365000C7FC6121072000F003FE142001F0C0FC2C
:1036600040F27311072000F0FBFD142001F0B8FCBC
:10367000A2E3F8E00021084600F0F2FD0021084630
:1036800000F0EEFD0021084600F0EAFD00210846AA
:1036900000F0E6FD0121A42000F0E2FD142001F07D
:1036A0009FFC4FF41C542146602000F0D9FD40F2ED
:1036B00002252946082000F0D3FD4FF40571302083
:1036C00000F0CEFD43F21571312000F0C9FD40F24B
:1036D0000461322000F0C4FD40F61661332000F092
:1036E000BFFD42F21121342000F0BAFD4FF4A85181
:1036F000352000F0B5FD48F20751362000F0B0FD4E
:1037000041F20741372000F0ABFD41F20341382080
:1037100000F0A6FD2021392000F0A2FD1A21902002
:1037200000F09EFD0021102000F09AFD07211120DD
:1037300000F096FD0021122000F092FD00211320E0
:1037400000F08EFD142001F04BFC4FF4E6611020D8
:1037500000F086FD40F23711112000F081FD1420A9
:1037600001F03EFC4FF4DC71122000F079FD1420D2
:1037700001F036FC4FF47061132000F071FD8021E0
:103780002A2000F06DFD4821292000F069FD142059
:1037900001F026FC3146012000F062FD5146022076
:1037A00000F05EFD41F23801032000F059FD29468A
:1037B000082000F055FD00210A2000F051FD0021F5
:1037C0000C2000F04DFD00210D2000F049FD3021BE
:1037D0000E2000F045FD0021502000F041FDEF21BA
:1037E000512000F03DFD0021522000F039FD40F253
:1037F0003F11532000F034FD2146602000F030FDE1
:103800000121612000F02CFD00216A2000F028FD3C
:103810001121902000F024FD4FF4C061922000F0AF
:103820001FFD40F20241932000F01AFD0221942076
:1038300000F016FD142001F0D3FB0121072000F059
:103840000FFD142001F0CCFB6121072000F008FDE2
:1038500040F27311072000F003FD0021202000F04A
:10386000FFFC0021212000F0FBFC222100207EE152
:103870000021084600F0F4FC0021084600F0F0FCAE
:10388000142001F0ADFB0021084600F0E9FC002106
:10389000084600F0E5FC0021084600F0E1FC0021AC
:1038A000084600F0DDFC0121A42000F0D9FC142022
:1038B00001F096FB4FF41C51602000F0D1FC40F663
:1038C0000601082000F0CCFC40F2037319463020BA
:1038D00000F0C6FC0121312000F0C2FC042132209E
:1038E00000F0BEFC4FF48171332000F0B9FC5C465F
:1038F0005946342000F0B4FC40F20311352000F0AA
:10390000AFFC1F21362000F0ABFC1946372000F039
:10391000A7FC0121382000F0A3FC0421392000F08D
:103920009FFC1521902000F09BFC4FF48261102039
:1039300000F096FC40F24721112000F091FC4FF47A
:10394000DE71122000F08CFC4FF46061132000F057
:1039500087FC782001F044FB3146012000F080FC18
:103960004FF40071022000F07BFC41F23001032093
:1039700000F076FC08210A2000F072FC00210C20E7
:1039800000F06EFC20210E2000F06AFC00210F20C8
:1039900000F066FC0021202000F062FC00212120C4
:1039A00000F05EFC3D212A2000F05AFC142001F0BA
:1039B00017FB2D21292000F053FC0021502000F09E
:1039C0004FFC4DF2EF01512000F04AFC0021522043
:1039D00000F046FC40F23F11532000F041FC002172
:1039E000612000F03DFC00216A2000F039FC2146F6
:1039F000922000F035FC0521932000F031FC314687
:103A0000FFF7ABBB0121002000F02AFC0A2001F0E7
:103A1000E7FA41F22861102000F022FC0E2112206A
:103A200000F01EFC40F63921132000F019FC0A209A
:103A300001F0D6FA4021112000F012FC502115208F
:103A400000F00EFC0A2001F0CBFA1E21122000F03B
:103A500007FC0A2001F0C4FA4FF4B151102000F025
:103A6000FFFB42F63921132000F0FAFB0A2001F097
:103A7000B7FA3146012000F0F3FB5946022000F06E
:103A8000EFFB41F23801032000F0EAFB40F2022193
:103A9000082000F0E5FB08210A2000F0E1FB0021EE
:103AA000302000F0DDFB40F20241312000F0D8FB75
:103AB0004FF48371322000F0D3FB40F203513320E6
:103AC00000F0CEFB4FF48271342000F0C9FB40F2CD
:103AD0000131352000F0C4FB3946362000F0C0FB30
:103AE00040F20531372000F0BBFB4FF40271382063
:103AF00000F0B6FB40F60B71392000F0B1FB02215B
:103B0000412000F0ADFB4FF41C5100E0D5E06020F7
:103B100000F0A6FB0121612000F0A2FB4FF404712C
:103B2000902000F09DFB4FF48571922000F098FBEF
:103B30000421932000F094FB3146A02000F090FB7C
:103B40000121072000F08CFB2121072000F088FBD9
:103B50002321072000F084FB3321072000F080FBA5
:103B600040F23311072000F07BFB0021A02000F081
:103B700077FB21E13021152000F072FB10219A2003
:103B800000F06EFB2021112000F06AFB43F2284177
:103B9000102000F065FB0221122000F061FB41F2D1
:103BA0003801132000F05CFB282001F019FA1221E3
:103BB000084600F055FB282001F012FA43F220419C
:103BC000102000F04DFB43F23801132000F048FBB9
:103BD000462001F005FA0021302000F041FB40F2C0
:103BE0000241312000F03CFB40F20731322000F06E
:103BF00037FB4FF44171332000F032FB04213420B5
:103C000000F02EFB40F20141352000F029FB39463F
:103C1000362000F025FB40F20531372000F020FB74
:103C20004FF4C2631946382000F01AFB19463920B8
:103C300000F016FB3146012000F012FB594602202D
:103C400000F00EFB41F23001032000F009FB40F6CA
:103C50000801082000F004FB08210A2000F000FB06
:103C60004FF41C51602000F0FBFA0121612000F0AC
:103C7000F7FA4FF49F71902000F0F2FA314692204B
:103C800000F0EEFA3146932000F0EAFA4FF440518A
:103C9000A02000F0E5FA1021A32000F0E1FA0121B4
:103CA000072000F0DDFA2121072000F0D9FA2321B6
:103CB000072000F0D5FA3321072000F0D1FA40F2B6
:103CC00033119DE6E22020801D20288002202880DC
:103CD00004202880642001F09DF9E020208001204C
:103CE00028800A2001F07CF9E02020800320288031
:103CF0000C2001F075F9012020800A2001F070F9F4
:103D0000E62020802F202880FF2028802880B020D7
:103D1000208020202880002028800320288040F256
:103D20001F3028800120288040F2DF1028800020EA
:103D30002880B42020800420288040F21F40288062
:103D4000002028802E20288000202880288028809D
:103D50002880B6202080022028804FF4037028801D
:103D60000020288017202880152028800020288007
:103D70002880F02020800320288029202080D02047
:103D8000208000202880BE20208005202880FE2062
:103D90002880012028800020288028802880B820C2
:103DA00020800320288001202880BA202080012044
:103DB0002880642000F024F80020FCF717FF044955
:103DC000C1F880814846FCF7DBFE1FB0BDE8F08FEC
:103DD00000802142034808B50088ADF80000BDF816
:103DE000000008BD0008006C044910B508800520DB
:103DF00001F010F9BDE81040FFF7ECBFFE07006CC2
:103E00000C4A10B5BE211180941C0521218002F0BE
:103E1000F4FB4FF06632084B02F002FC02F0C0FBEC
:103E2000208001202080FF20208000202080208012
:103E300010BD0000FE07006C66660440F0B5674EDA
:103E400000233146B279898846F6040741F66314A7
:103E5000012A01D02AB11DE0B9421BD0A14202D1F2
:103E600018E0A14216D1082814D2DFE800F00406B9
:103E7000080A0C0E101206200CE007200AE00420AD
:103E800008E0052006E0012004E0002002E0032015
:103E900000E00220A1F5134C45F2103245F2105516
:103EA000BCF1410C07D0B94205D0914203D0A942E0
:103EB00001D0A14275D1082812D2DFE800F0110428
:103EC00006080A0C0E1080230AE0402308E0C023F5
:103ED00006E0202304E0602302E0A02300E0E023CA
:103EE000A94202D14FF4585000E03620914205D04B
:103EF000A94203D0A14201D043F00803B94201D145
:103F000043F00203194600F0ABF9B288A2420AD08E
:103F100098063088718802D5884202D303E088422F
:103F200001D9318070802E48811CAA42728902809A
:103F300021D100230B80531C038000230B80931C92
:103F4000038033885B1E1C0A0C80D21C0280DAB20C
:103F50000A80B289028000230B80531C0380002357
:103F60000B80931C038073885B1E1C0A0C80D21C80
:103F70000280D8B212E000220A800A803288521EE3
:103F8000130A0B80D2B20A80B28902800020088016
:103F900008807088401E020A0A80C0B20880F0BD06
:103FA000FFE7082812D2DFE800F0040608110A0C27
:103FB0000E1030230AE0102308E0202306E0382307
:103FC00004E0282302E0182300E00823BDE8F040C5
:103FD000032043F4805100F043B90000DA020020CE
:103FE000FE07006C2DE9F04F4E4F0B463A46BD8858
:103FF0000C0ADFF834B191895289A5F513464FEACE
:10400000102C0BF1020A413E1DD0A5F5A646103E2C
:1040100019D03E46BE4696F806903688A5F5D0479C
:10402000A6EB0008A8F10108043F17D0A5F5C85772
:10403000633F28D0A5F5AA477646103F51D0B9F185
:10404000010F63D064E0ABF800205246AAF800C02C
:10405000C0B2AAF80000ABF800100FE0B9F1010FF0
:1040600001D11FFA88F0ABF80020050A5246AAF8E1
:104070000050C0B2AAF80000ABF800101480D8B20B
:104080001080BDE8F08FB9F1000F1BD0ABF8002015
:104090005246AAF800C0C0B2AAF80000761E300A44
:1040A000AAF80000F0B21080ABF80010114614809E
:1040B000D8B21080BEF80200401E020A0A80C0B2C8
:1040C0000880DEE71FFA88F0ABF800200026524691
:1040D000AAF80060AAF80060060AAAF80060C0B258
:1040E000E1E7ABF80020AAF800C0521CABF80020B2
:1040F000C0B2AAF80000ABF80010AAF80040491CB2
:10410000ABF80010D8B2AAF80000BAE71FFA88F09E
:104110000146104600F0A4F8B089BDE8F04F1946FA
:1041200000F09EB8DA020020FE07006C2DE9F84F7F
:1041300082461F460C468B46580700D0012000EBF4
:10414000D70079084843203AC0B202F0FF090026A0
:10415000009041E00C2F10D0102F12D0182F3ED11C
:10416000204909EBC90001EB80004FF00008855D94
:1041700028060AD51C4802880BE009EB49001B49B8
:10418000F1E71B4901EB0910EFE70A9828B9164837
:10419000428821465046FCF729FE6806050E154860
:1041A000641CA4B24088A04219D9A4EB0B00B84209
:1041B00009D10AF101001FFA80FA0E485C46018815
:1041C00051450CD906E008F1010000F0FF08B8F1F4
:1041D000080FCDD3761CF6B200988642BAD3BDE85C
:1041E000F88F0000AA78000870010020466E0008D1
:1041F000BA720008DA0200202DE9F84F044600F0F8
:10420000FF0810190D46DDE90A761FFA80FA5819E1
:104210001FFA80F94FF0000B11E0544502D3E81962
:10422000444685B24D450FD23B4629462046CDF83F
:1042300000B0FFF77BFF04EB570084B2761C3278A6
:10424000A2F120005E28E8D9BDE8F88F02480349B2
:104250000089088070470000DA020020FE07006C29
:10426000024A1080901C018070470000FE07006C1D
:10427000FEE7704730B50F23C27801780125F2B10F
:10428000144A126801F1E02102F4E062C2F5E06232
:10429000120AC2F10404D3404278A24084781C4040
:1042A0001443220181F80024007800F01F018D40A2
:1042B0004009800000F1E020C0F8005130BD01F05D
:1042C0001F0085404809800000F1E020C0F88051BF
:1042D00030BD00000CED00E00249084302490860CF
:1042E000704700000000FA050CED00E0002130B13D
:1042F000012806D0032806D0042807D105E0B02104
:1043000004E0982102E0182100E03021552000F05F
:10431000BBBA70B5802622255E2430B1012808D0B2
:1043200003280AD004280FD10BE0402611252F24A2
:104330000AE066261B254B2406E0992628257124D1
:1043400002E0C02633258D2431464F2000F09CFA30
:104350003146502000F098FA0021512000F094FAE4
:104360002946522000F090FA2146532000F08CFAA2
:104370003146542000F088FABDE870409E21582054
:1043800000F082BA402130B1012806D0032806D0BF
:10439000042807D105E0302104E0382102E0502153
:1043A00000E06021562000F06FBA0000F8B500244C
:1043B000012140F23D1000F025F94FF48075ADF871
:1043C000005048268DF803600320354F8DF8020019
:1043D00069463846FCF74EFB29463846FCF7CDFBCC
:1043E0001820ADF800002F4F10258DF803506946B6
:1043F0003846FCF73FFB18213846FCF7BEFBFF2090
:10440000ADF800008DF8036069462748FCF732FBE1
:104410004020ADF80000254E8DF803506946304627
:10442000FCF728FB40213046FCF7A7FB4FF4404641
:10443000ADF800608DF803501D4D69462846FCF725
:1044400019FB31462846FCF798FB01211948FCF777
:104450005FFB00F0E3F88021122000F015FA08B1AC
:104460000120F8BD322000F0BBFD0B2000F068F900
:10447000732804D10A2000F063F9762801D00220C5
:10448000F8BD0D4D05EB4400417815F8140000F01F
:10449000FBF9641CA4B2A82CF4D30020F8BD0000E2
:1044A00000080140000C01400010014000140140D0
:1044B00000200140000230000686000870B500258B
:1044C000E7212C46012806D0022808D003280AD06C
:1044D00004280FD10BE0E5215A255C240AE0E521F0
:1044E0005825602406E0E52184254C2402E0E521DE
:1044F00096254024132000F0C7F92946012000F03A
:10450000C3F92146BDE87040022000F0BDB970B586
:104510000421C0248025072816D2DFE800F0150406
:1045200006090B0E1200242100E0142180240BE068
:10453000142109E01421402405E014218024C02521
:1045400002E01421A02440253A2000F09DF92146E4
:10455000682000F099F92946BDE87040672000F016
:1045600093B92DE9F041054600EB420086B201EB1C
:10457000430084B20F46B4F5447F02D9A4F54474D5
:10458000A4B2032000F0DCF806F00302294600F094
:10459000F00062F39F010143032000F075F9C5F3B9
:1045A0008701192000F070F9C6F387011A2000F086
:1045B0006BF9322000F0C4F8C7F3C701172000F0F0
:1045C00063F9C4F3C701BDE8F041182000F05CB9FD
:1045D00070470000044A0029516901D0014300E0FE
:1045E000814351617047000000100240044A0029D5
:1045F000D16901D0014300E08143D16170470000DF
:1046000000100240044A0029916901D0014300E0F2
:1046100081439161704700000010024038B50121CC
:104620004FF49070FFF7EEFF4FF40055ADF80050D7
:1046300048208DF803000320114C8DF802006946D4
:104640002046FCF717FA29462046FCF796FA082080
:10465000ADF8000010200B4D8DF803006946284688
:10466000FCF708FA08212846FCF787FA606820F46E
:1046700070006060606840F44010606038BD000009
:10468000002001400014014070B5322000F0C2FC4F
:104690000C4D0120C5F8B4010B4EC6F88C01322038
:1046A00005F5DA7506F5C67600F0B4FC0024346032
:1046B000322000F0AFFC2C60BDE87040322000F0EA
:1046C000A9BC000000002442008022422DE9F047EE
:1046D000184F0024786820F470007860786840F4FF
:1046E00000007860DFF85090144E08254FF0010864
:1046F000A246322000F08EFCC6F88C816006040EC3
:10470000D9F8340108B1641CE4B2322000F082FC14
:10471000C6F88CA16D1E15F0FF05EAD1786820F46B
:1047200070007860786840F4401078602046BDE8FA
:10473000F087000000200140000024420080224257
:1047400010B5044600F022F8422000F055F864202D
:1047500000F060FC204600F04FF8642000F05AFCA6
:1047600000F02EF8642000F055FC00F00FF8432014
:1047700000F042F8642000F04DFCFFF7A7FF04466C
:10478000FFF782FF00F01CF8204610BD70B50A4EFE
:104790000120C6F8B401094DC5F88C01322005F599
:1047A000C67506F5DA7600F035FC00243460322058
:1047B00000F030FC2C6070BD0000244200802242DA
:1047C00070B50B4C0020C4F8B401322004F5DA7443
:1047D00000F020FC07480125C0F88C51322000F081
:1047E00019FC2560BDE87040322000F013BC0000C9
:1047F00000002442008022422DE9F04700241F4E91
:104800001F4F0546A0464FF00109280601D548462E
:1048100000E04046C6F8B4016806050E322000F0FC
:10482000F9FBC7F88C91322000F0F4FBC7F88C81BB
:10483000641CE4B2082CE8D3124C606820F47000C9
:104840006060606840F400006060322000F0E2FBCD
:10485000C7F88C91322000F0DDFBD6F8340100B1AE
:104860000120C7F88C81616821F470016160616882
:1048700041F440116160BDE8F0870000000024426F
:10488000008022420020014070B50D4606460024FB
:10489000FFF77CFF4220FFF7AFFF00B10124642047
:1048A00000F0B8FB3046FFF7A7FF00B101246420F9
:1048B00000F0B0FB2846FFF79FFF00B10124FFF78F
:1048C0007FFF204670BD70470CB50022264800923D
:1048D0000192016841F4803101604FF4A0630168E6
:1048E00001F4003101910099491C0091019911B91D
:1048F00000999942F3D10168890333D501210191CF
:104900001A490A6842F010020A600A6822F003029B
:104910000A600A6842F002020A6041684160416828
:104920004160416841F480614160416821F47C113B
:104930004160416841F4E8114160016841F08071D3
:10494000016001688901FCD5416821F003014160E3
:10495000416841F0020141604168C1F381010229CF
:10496000FAD10CBD01920CBD0010024000200240A3
:104970004FF0E0210428086903D020F0040008610A
:10498000704740F00400FAE7704700000F4810B588
:10499000016841F00101016041680D4A1140416028
:1049A00001680C4A11400160016821F48021016016
:1049B000416821F4FE0141604FF41F018160FFF75F
:1049C00083FF05494FF00060086010BD00100240F1
:1049D0000000FFF8FFFFF6FE08ED00E010B50A4CFE
:1049E0000121204600F0B1F800280AD0012120461C
:1049F00000F093F80549D1F8940118B10020C1F8EE
:104A0000940110BD0120FAE7000400400000234299
:104A100010B50C4C0121204600F097F801280AD16E
:104A20000948016988470021204600F0AAF864215E
:104A3000204600F0A4F82046BDE81040012100F017
:104A40006CB8000000080040D801002070B51F4C71
:104A50001F4D2078000633D40121284600F075F858
:104A600038B12178480604D5C843800612D0491CC5
:104A700021700221284600F068F808B32178480622
:104A80000FD541F080002070284600F053F8608078
:104A9000002112E041F0800020704FF6FF7060802E
:104AA000E7E70020207060800146284600F069F8A2
:104AB0002078022140F040002070284600F059F88C
:104AC0002846BDE87040032100F027B87601002099
:104AD000000C004070B5094D0121284600F035F862
:104AE00030B1074C07A06178FBF7C0FB0020607075
:104AF0002846BDE87040012100F00FB800100040CA
:104B0000760100206672616D653A25646670730DEA
:104B10000A000000C94301827047C94301827047FF
:104B20000029018802D041F0010101E021F00101DA
:104B300001807047808E7047808C7047024600204D
:104B4000128A0A4200D00120704702460020138AD0
:104B500092890B4202EA010202D0002A00D0012011
:104B60007047002A828901D00A4300E08A4382818B
:104B70007047028C22F002020A430284704781854A
:104B8000704781847047000030B502881B4C1C4D73
:104B9000A0420DD0A8420BD0B0F1804F08D0194BE5
:104BA000984205D0184B984202D0184B984203D136
:104BB00022F070034A881A43154B984206D0154BD1
:104BC000984203D022F44073CA881A4302808A882C
:104BD00082850A880285A0420AD0A84208D00E4ADF
:104BE000904205D00D4A904202D00D4A904201D128
:104BF000097A01860121818230BD0000002C01402C
:104C0000003401400004004000080040000C004057
:104C100000100040001400400040014000440140EA
:104C2000004801407FB50D46044601210420FFF7EE
:104C3000DDFCADF804400020ADF80050104CADF89C
:104C40000600ADF8020069462046FFF79DFF0122ED
:104C500041212046FFF785FF1E218DF80C1003210E
:104C60008DF80D108DF80E1001208DF80F0003A89F
:104C7000FFF700FB01212046FFF752FF7FBD000038
:104C80000008004070B5154C40F22551204600F058
:104C90002BF800280ED0204600F045F8104AC1B28B
:104CA0001088030406D444044FF0000306D50A29F3
:104CB00001D0138070BD40F400400DE00D2909D0F3
:104CC000C0F30D04074D401C80B229551080C72841
:104CD000EFD870BD40F48040108070BD00380140B6
:104CE0007E010020E802002070B501F01F050126BA
:104CF0000024C1F3421306FA05F2012B0FD0022B58
:104D00000FD0838A4FEA11210088134206FA01F678
:104D100000EA060001D000B10124204670BD83895D
:104D2000F0E7038AEEE78088C0F308007047FEE7EB
:104D300030380A2801D201207047002070477047A0
:104D40002DE9F05FDFF81CB29BF8000002287DD14E
:104D500000F016F90420FFF771F8FFF777FA824A9E
:104D60004FF00008C2F8B881804910250D60081F77
:104D700005600D600127C2F8B87105607C4E44469D
:104D800089468246C9F800507A4A9068CAF80050AD
:104D9000C0B24FF6FF7303EA0020C9F800509168D3
:104DA000C9B201433180CAF8005073480180F06AEB
:104DB000B0F5A07F03D1306B401CC6E90B8099424F
:104DC00007D1B06A30B101280CD002281ED00328C8
:104DD0003ED084E0B762306B7060F06AB060F0681B
:104DE000401CF060D6E9021091FBF0F1726892FB72
:104DF000F0F0D6E90B32FBF795FC40BB0220B06225
:104E0000306B3061F06AC6E9050768E0D6E9021048
:104E100091FBF0F1726892FBF0F0D6E90B32FBF7F0
:104E200081FCA0B9D6E9051091FBF0F1326992FB43
:104E3000F0F0D6E90B32FBF775FC68BB0320B062DB
:104E4000306BF061F06AC6E9080748E087E00BE0E4
:104E5000D6E9021091FBF0F1726892FBF0F0D6E90E
:104E60000B32FBF75FFC58B1316B7068084470601F
:104E7000F16AB0680844B060F068401CF0602EE051
:104E8000D6E9051091FBF0F1326992FBF0F0D6E91A
:104E90000B32FBF747FC58B1316B30690844306185
:104EA000F16A706908447061B069401CB06116E035
:104EB000D6E9081091FBF0F1F26992FBF0F0D6E927
:104EC0000B32FBF72FFC50B1316BF0690844F061F5
:104ED000F16A306A08443062706A401C7062F06A9D
:104EE000641C401CF062B4F5963FFFF44BAFB06A0F
:104EF000012829DB7168F068B26891FBF0F192FB40
:104F0000F0F089B280B20522FBF718FFB06A0228E0
:104F10001ADB3169B069726991FBF0F192FBF0F034
:104F200089B280B20722FBF709FFB06A03280BD1D0
:104F3000F169706A326A91FBF0F192FBF0F089B28C
:104F400080B20922FBF7FAFE0C498BF80080087842
:104F5000401C0870BDE8F05F0020FEF76FBFBDE8A1
:104F6000F09F00007401002000002442140C014056
:104F700000000020001001400008006C77010020B4
:104F80000748002141608160C16001614161816128
:104F9000C161016241628162C162016370470000C8
:104FA0000000002010B56FF00400FFF7E1FC094895
:104FB00009490068B0FBF1F00849C0B200EB4002BB
:104FC0000870C2EBC0104FF6FF7202EAC0004880C2
:104FD00010BD00005C01002000127A007A01002060
:104FE0000B49498848434FF0E021486100238B6119
:104FF000086940F0010008610869C20701D0C003D8
:10500000FAD5086920F0010008618B617047000043
:105010007A0100200B49097848434FF0E0214861AC
:1050200000238B61086940F0010008610869C2072C
:1050300001D0C003FAD5086920F0010008618B6136
:10504000704700007A01002004490A885206FCD506
:10505000024AC1B2121D11807047000000380140A1
:105060001CB54FF002084FF0000946464446FFF7D2
:1050700099FF4FF4A060FFF72FF9FBF78DFFB549BB
:105080004FF4784010250880B3A0CDE900502B469E
:10509000C82232211E20FFF7AFF8B3A0CDE900509F
:1050A0001023C82246211E20FFF7A6F8B1A0CDE9A3
:1050B00000501023C8225A211E20FFF79DF8B1A0EE
:1050C000CDE900501023C8226E211E20FFF794F86E
:1050D000AFA0CDE900501023C82282211E20FFF787
:1050E0008BF8AFA0CDE900501023C82296211E20D6
:1050F000FFF782F8AEA0CDE900501023C822AA2104
:105100001E20FFF779F8AEA0CDE900501023C82289
:10511000BE211E20FFF770F8ADA0CDE9005010238E
:10512000C822D2211E20FFF767F8ADA0CDE90050BC
:105130001023C822E6211E20FFF75EF84FF6FF7706
:1051400015E0ABA0CDE900501023C822E6211E20B7
:10515000FFF752F8C820FFF743FFF623EF22E621BE
:105160001E200097FBF7D2FEC820FFF739FFFFF79C
:105170001DF90028E5D1A2A0CDE900501023C822D6
:10518000E6211E20FFF738F840F2DC50FFF728FF39
:105190004846FFF793F94046FFF7BBF83046FFF764
:1051A000A5F82046FFF7EEF80020FFF7B0F9FBF76F
:1051B0003FFB4FF4A073F022B0210A20FFF7D1F992
:1051C00093490020C1F8BC01FBF7DAFCDFF8448208
:1051D0004FF4967AA8F58C7404F190098E4EFFF77F
:1051E000AFFDA06A012815DBD4E9021091FBF0F2B3
:1051F000616891FBF0F18748E43801F087F9854850
:105200001023E438CDE90050C8224FF482710A20FF
:10521000FEF7F2FFA06A022815DBD4E9051091FB26
:10522000F0F2216991FBF0F17A48DC3801F06EF977
:1052300078481023DC38CDE90050C8224FF48C7137
:105240000A20FEF7D9FFA06A032814DBD4E908106E
:1052500091FBF0F2E16991FBF0F16E48D43801F076
:1052600055F96C481023D438CDE90050C822514676
:105270000A20FEF7C1FFA06A02281AD001282FDCFD
:10528000D4E9021091FBF0F26168624B91FBF0F1FE
:10529000443B6148CDF8008001F022F82D203070A9
:1052A000332070703720B0702E20F07035203071B0
:1052B00044E06168E06891FBF0F2782A12DCA369AF
:1052C000226992FBF3F291FBF0F3D21A5A2A09DA1F
:1052D00091FBF0F2142A05DBA26892FBF0F224E0C5
:1052E00002281DD16268E16892FBF1F0782817DC92
:1052F0002369A06992FBF1FC93FBF0F7A7EB0C0785
:105300005A2F0DDA92FBF1F1142909DA6169CDF80F
:10531000008091FBF0F293FBF0F13E4B443B0AE03E
:10532000D4E9051091FBF0F221693A4B91FBF0F1C1
:10533000CC3BCDF80090384800F0D2FFCDE90056C4
:105340001023C82251467820FEF756FFC820FFF7E9
:1053500047FE44E77001002057617253686970206E
:1053600053544D33320000004F56373637302054F7
:105370004553540041544F4D40414C49454E5445CE
:105380004B000000323031352F312F313800000012
:105390004B4559303A4C69676874204D6F6465001D
:1053A0004B4559313A53617475726174696F6E007F
:1053B0004B4559323A4272696768746E657373007F
:1053C0004B45595F55503A436F6E74726173740068
:1053D000545041443A4566666563747300000000AA
:1053E0004F563736373020496E69742E2E2E000006
:1053F0004F5637363730204572726F7221210000C8
:105400004F563736373020496E6974204F4B0000B5
:105410000000244218010020CC02002000687047E0
:1054200070B594B0064613AB11AA694600F0D8F9DE
:10543000002824D18DF840001D4C042514E020687C
:1054400005EBC10113AB405812AA08A900F0C8F936
:10545000002814D1694608A800F0EAFB88B19DF83D
:105460004000401C8DF84000207D9DF8401088428F
:10547000E5D8207D9DF8401088420ED1042014B05C
:1054800070BD9DF848009DF84410884201D9022063
:10549000F5E79DF84000A075EBE710A9304600F055
:1054A00053FA0028EBD19DF8400060750020E6E734
:1054B000D80100202DE9F0417E4E9AB0B57D307DB7
:1054C000A8427CD90421306801EBC50119AB4058D2
:1054D00018AA10A900F084F910A977A0FAF7C6FE5F
:1054E00000240DF1180832E0308B0121A140084260
:1054F00017D0222172A0FAF7B9FE204600F08CFAEC
:10550000811970A02431FAF7B1FE22216CA0FAF7BC
:10551000ADFE204600F080FA3044243048F82400E4
:105520000BE0204600F078FA3044416A48F8241035
:10553000F07D00B364A0FAF799FE9DF86000401E6C
:10554000844202D062A0FAF791FE641CE4B29DF896
:1055500060008442C8D35FA0FAF788FE00F0A6FA84
:10556000707D0B2814D2DFE800F0080D3138404878
:10557000525E6B78890058A0DDE7306850F835003E
:10558000804704E0306850F8351006988847074691
:1055900000F054FA9DF8640001286ED04FA0FAF78D
:1055A00065FE96F8EC0000280DD0D6F8F0000A2130
:1055B000B0FBF1F201FB1202B0FBF1F100E002E0FE
:1055C00047A0FAF753FE1AB0BDE8F081306850F8F2
:1055D0003520DDE906019047D9E7306806AC50F880
:1055E000353094E807009847D1E7306806AF50F8A7
:1055F000354097E80F00A047C9E70A980090306847
:1056000006AF50F8354097E80F00A047BFE7DDE947
:105610000A01CDE90001306806AF50F8354097E83F
:105620000F00A047B3E70AAB06AF93E807008DE889
:105630000700306850F8354097E80F00A047A6E70C
:105640000AAC06AF94E80F008DE80F00306850F800
:10565000354097E80F00A04799E70BAC06AF94E8F8
:105660000F0001AC84E80F000A980090306850F8F1
:10567000354097E80F00A04789E711E00CAC06AF72
:1056800094E80F0002AC84E80F00DDE90A01CDE9DF
:105690000001306850F8354097E80F00A04776E7E2
:1056A000F07D394618B116A0FAF7E0FD79E717A0AA
:1056B000FAE70000D80100200D0A25732800000039
:1056C00025630000257300003058255800000000B5
:1056D0002C00000029000000256C75003B0D0A001D
:1056E00046756E6374696F6E2052756E2054696DD5
:1056F000653A25642E2531646D730D0A00000000A3
:105700003D305825583B0D0A000000003D256C75C2
:105710003B0D0A00F0B500252E462F462C46037897
:105720002C2B03D0292B04D01BB103E014B9012684
:1057300000E05CB317B1222B26D026E0A3F1300C99
:10574000BCF1090F15D9A3F1610CBCF1050F10D9FB
:10575000A3F1410CBCF1050F0BD9582B09D0782BC4
:1057600007D0222B0CD0202B1ED02C2B1CD0FF2797
:105770000CE05EB9612B00D3203B01F8013B13E044
:1057800026B901273C460FE0002426B1002008700E
:1057900017702846F0BD3CB15C2B02D16D1CEDB2F8
:1057A000401C037801F8013B6D1CEDB2401CB6E7CC
:1057B00030B5002515700AE001F8014B1478401C43
:1057C000641CE4B214709C4201D3012030BD047803
:1057D000202C01D0002CEFD10D70002030BD000036
:1057E0002DE9FF4F002482B089469846A2462746FD
:1057F000012526462246EB46029915E0202810D0C6
:1058000002F07F03052B0CD202B9802202F07F0345
:10581000042B01D12A280AD1521C0BF80300D2B262
:1058200001E0852A04D0491C08780028E6D16AB135
:1058300002F07F0200200BF8020041A1584600F060
:10584000F7F938B1012188F8001000224FF0000864
:10585000029B15E0002088F80000F6E708F101003F
:1058600000F0FF0813F8010F202801D02A2807D1E3
:10587000184600F085F9282802D02A2800D0C24610
:105880001878282801D00028E8D10299BAF1000F31
:1058900001D05144491C4FF000084346087888B1B4
:1058A000282804D0292806D0222810D011E083B956
:1058B000641CE4B20DE063B924B1641E14F0FF046B
:1058C00002D00DE04FF00108012F27D02FE04BB19F
:1058D00000234CB12C280CD0202816D0282814D016
:1058E0005AB110E00123F4E7202815D009F8010B84
:1058F00012E00125521CD2B207E0052E03D20BF8AC
:105900000600761CF6B26D1CEDB2012C04D1022DFE
:1059100002D103257F1CFFB2491CBFE700200BF812
:10592000060007A1684600F083F900B90027049833
:105930000770002089F8000006B04046BDE8F08FEF
:10594000766F6964000000002DE9F0430024894669
:10595000304DB5B0214622466B18491CC9B29A7623
:105960000A29F9D302E010F8011F99B1017828291A
:10597000F9D1461C4FF0010833AA69463046FFF7BB
:10598000C9FE06449DF8CC0040B1012824D0FF2870
:1059900036D10BE0012035B0BDE8F0839DF8000062
:1059A00070B334A9684600F0F3F808B10220F2E7BA
:1059B000204600F031F8284434994162298B08FAD6
:1059C00004F081432983042029198876641CE4B2F9
:1059D0000A2C15D90320DEE7684600F03EF9471C83
:1059E000204600F019F841196846243100F02CF9DE
:1059F000298B08FA04F00143281929838776E5E703
:105A00003078292801D00028B6D189F8004000203C
:105A1000C1E70000D8010020024610B50020014671
:105A2000054B05E05C18491CA47EC9B22044C0B2F5
:105A30009142F7D310BD0000D801002070B50B4D86
:105A400001212846FFF77AF8094C012806D1D4F83D
:105A5000F0004FF6FF710844C4F8F0002846FFF745
:105A60006BF854F8F01F0844206070BD0008004037
:105A7000D801002000EBC00101EB00104FF0FF3116
:105A800001EB800010B581B24FF47A70FFF7CAF8CD
:105A900001490120C87510BDD8010020034601202E
:105AA00000E05843491EC9B2FBD2704710B5094CFB
:105AB00001212046FFF72EF84FF6FF712046FFF731
:105AC0005EF800212046FFF75CF803490020C1F88A
:105AD000F00010BD00080040D80100202DE9F04181
